{
  "contractName": "DocumentVerification",
  "abi": [
    {
      "anonymous": false,
      "inputs": [
        {
          "indexed": true,
          "internalType": "address",
          "name": "uploader",
          "type": "address"
        },
        {
          "indexed": false,
          "internalType": "bytes32",
          "name": "documentHash",
          "type": "bytes32"
        }
      ],
      "name": "DocumentUploaded",
      "type": "event"
    },
    {
      "inputs": [
        {
          "internalType": "bytes32",
          "name": "documentHash",
          "type": "bytes32"
        }
      ],
      "name": "uploadDocument",
      "outputs": [],
      "stateMutability": "nonpayable",
      "type": "function"
    },
    {
      "inputs": [
        {
          "internalType": "bytes32",
          "name": "documentHash",
          "type": "bytes32"
        }
      ],
      "name": "verifyDocument",
      "outputs": [
        {
          "internalType": "bool",
          "name": "",
          "type": "bool"
        }
      ],
      "stateMutability": "view",
      "type": "function",
      "constant": true
    }
  ],
  "bytecode": "0x608060405234801561000f575f80fd5b506102ea8061001d5f395ff3fe608060405234801561000f575f80fd5b5060043610610034575f3560e01c80636efb635514610038578063fe35089f14610054575b5f80fd5b610052600480360381019061004d91906101b6565b610084565b005b61006e600480360381019061006991906101b6565b61015a565b60405161007b91906101fb565b60405180910390f35b5f808281526020019081526020015f205f9054906101000a900460ff16156100e1576040517f08c379a00000000000000000000000000000000000000000000000000000000081526004016100d89061026e565b60405180910390fd5b60015f808381526020019081526020015f205f6101000a81548160ff0219169083151502179055503373ffffffffffffffffffffffffffffffffffffffff167ff99bc9356237cf8517303f12b348c716e63c9ed46d8a5a72dd164232754099d38260405161014f919061029b565b60405180910390a250565b5f805f8381526020019081526020015f205f9054906101000a900460ff169050919050565b5f80fd5b5f819050919050565b61019581610183565b811461019f575f80fd5b50565b5f813590506101b08161018c565b92915050565b5f602082840312156101cb576101ca61017f565b5b5f6101d8848285016101a2565b91505092915050565b5f8115159050919050565b6101f5816101e1565b82525050565b5f60208201905061020e5f8301846101ec565b92915050565b5f82825260208201905092915050565b7f446f63756d656e74206861736820616c726561647920657869737473000000005f82015250565b5f610258601c83610214565b915061026382610224565b602082019050919050565b5f6020820190508181035f8301526102858161024c565b9050919050565b61029581610183565b82525050565b5f6020820190506102ae5f83018461028c565b9291505056fea2646970667358221220dd980414b884746930e3e862d685681dba811e06822435a14074826de38890cd64736f6c63430008140033",
  "immutableReferences": {},
  "source": "// SPDX-License-Identifier: MIT\r\npragma solidity ^0.8.20;\r\n\r\ncontract DocumentVerification {\r\n    mapping(bytes32 => bool) private documentHashes;\r\n    event DocumentUploaded(address indexed uploader, bytes32 documentHash);\r\n\r\n    function uploadDocument(bytes32 documentHash) public {\r\n        require(!documentHashes[documentHash], \"Document hash already exists\");\r\n        documentHashes[documentHash] = true;\r\n        emit DocumentUploaded(msg.sender, documentHash);\r\n    }\r\n\r\n    function verifyDocument(bytes32 documentHash) public view returns (bool) {\r\n        return documentHashes[documentHash];\r\n    }\r\n}\r\n",
  "sourcePath": "D:\\job-recruitment-system - Copy - Copy\\contracts\\DocumentVerification.sol",
  "compiler": {
    "name": "solc",
    "version": "0.8.20+commit.a1b79de6.Emscripten.clang"
  },
  "schemaVersion": "3.4.16",
  "updatedAt": "2025-09-14T04:23:08.385Z",
  "networkType": "ethereum",
  "devdoc": {
    "kind": "dev",
    "methods": {},
    "version": 1
  },
  "userdoc": {
    "kind": "user",
    "methods": {},
    "version": 1
  }
}